:020000040000FA
:0600000024EF0AF01200DB
:020006001200E6
:08000800DACFE4FFE2CFDAFFDA
:10001000E9CFE4FFEACFE4FFF6CFE4FFF7CFE4FF58
:10002000F5CFE4FFF3CFE4FFF4CFE4FFFACFE4FF32
:1000300000EE00F0140EE80403E3EECFE4FFFBD77C
:1000400000EE14F0060EE80403E3EECFE4FFFBD766
:10005000E652F250040B37E0F250200B34E0F00E81
:10006000D76EBD0ED66E0001602B000E6123761F89
:10007000771F010E6E1901E16F5107E1837E705108
:10008000711103E06C2B000E6D23020E6E1901E15D
:100090006F5117E1705171110AE06C516D1103E15C
:1000A0006A516B1104E0010E6C5F000E6D5B7051C4
:1000B000711107E06C516D1104E16A516B1101E19E
:1000C000837CF29419D0F250020B16E0F250100B20
:1000D00013E06FEC06F0030E00016FAF02D0D89072
:1000E00003D06E5D000E6F5904E26E2B000E6F237D
:1000F00002D06E6B6F6BF292E55200EE19F0060EB5
:10010000E80403E3E5CFEDFFFBD700EE13F0140E98
:10011000E80403E3E5CFEDFFFBD7E5CFFAFFE5CF3A
:10012000F4FFE5CFF3FFE5CFF5FFE5CFF7FFE5CF30
:10013000F6FFE5CFEAFFE5CFE9FFE5CFDAFF1100F3
:0E0140000100641400006000000018000000C0
:02014E00D9CF07
:10015000E6FFE1CFD9FF160EE126BF0EDE6EDD6AA7
:10016000860EF36E020EF3CFDBFF030EDB6ADB0EAF
:10017000F36E040EF3CFDBFF050EDB6ACF0EF36EDA
:10018000060EF3CFDBFF070EDB6AE60EF36E080EFA
:10019000F3CFDBFF090EDB6AED0EF36E0A0EF3CF31
:1001A000DBFF0B0EDB6AFD0EF36E0C0EF3CFDBFFF5
:1001B0000D0EDB6A870EF36E0E0EF3CFDBFF0F0E14
:1001C000DB6A100EDB68110EDB6AEF0EF36E120EA7
:1001D000F3CFDBFF130EDB6A946A956A926A0F0E07
:1001E000C16E9368F19C0DEC09F098EC06F06FEC91
:1001F00006F000016E516F1105E0030E6E1901E16A
:100200006F5104E17451751101E002D016EC09F050
:1002100000016E516F1101E040D1838E81B40BD08B
:1002200081A4FED700017451751103E0721F731F82
:1002300002D0741F751F8150080B25E17451751190
:1002400022E081A6FED70001725173110CE03C0E32
:10025000625D000E635904E2622B000E632302D03C
:10026000626B636B10D0170E645D000E655909E276
:10027000000E645D000E655904E3642B000E6523D7
:1002800002D0646B656B81B205D081A2FED70001FC
:10029000746B756B7451751101E1F0D0725173116B
:1002A00004E17651771101E083807251731101E00E
:1002B0008380D9CF16F0DACF17F064C018F065C08C
:1002C00019F00A0E0D6E0E6A18C008F019C009F078
:1002D000FEEC09F008C018F009C019F0010ED89022
:1002E00018361936E806FBE116501824E96E175047
:1002F0001920EA6EEECF14F0EFCF15F0141C826EC9
:10030000640EE66EE66A27EC06F0E552E55283904D
:10031000826800017251731104E17651771101E096
:1003200083827251731101E08382D9CF16F0DACF44
:1003300017F064C018F065C019F00A0E0D6E0E6A51
:1003400018C008F019C009F0FEEC09F004C018F05C
:1003500005C019F0010ED89018361936E806FBE1F1
:1003600016501824E96E17501920EA6EEECF14F0DB
:10037000EFCF15F0141C826E640EE66EE66A27EC71
:1003800006F0E552E55283928268000172517311C2
:1003900004E07651771101E083847251731101E119
:1003A0008384D9CF16F0DACF17F062C018F063C09B
:1003B00019F00A0E0D6E0E6A18C008F019C009F087
:1003C000FEEC09F008C018F009C019F0010ED89031
:1003D00018361936E806FBE116501824E96E175056
:1003E0001920EA6EEECF14F0EFCF15F0141C826ED8
:1003F000640EE66EE66A27EC06F0E552E552839459
:10040000826800017251731104E07651771101E0A6
:1004100083867251731101E18386D9CF16F0DACF4A
:1004200017F062C018F063C019F00A0E0D6E0E6A64
:1004300018C008F019C009F0FEEC09F004C018F06B
:1004400005C019F0010ED89018361936E806FBE100
:1004500016501824E96E17501920EA6EEECF14F0EA
:10046000EFCF15F0141C826E640EE66EE66A27EC80
:1004700006F0E552E552839682680ED062C0E6FF30
:1004800063C0E6FF64C0E6FF65C0E6FFF6EC07F078
:10049000E552E552E552E552CED3010E6E1901E167
:1004A0006F5139E181B205D081A2FED70001701FE2
:1004B000711F81B409D081A4FED700016C6B6D6BF4
:1004C0006A6B6B6B706B716B7051711115E17651CA
:1004D00077110FE06CC0E6FF6DC0E6FF6AC0E6FF73
:1004E0006BC0E6FFF6EC07F0E552E552E552E55247
:1004F00002D098EC06F00ED06CC0E6FF6DC0E6FFAF
:100500006AC0E6FF6BC0E6FFF6EC07F0E552E55285
:10051000E552E55290D3020E6E1901E16F5101E0F0
:10052000EAD18150040B25E17051711122E181A4BF
:10053000FED70001745175110CE066C06AF067C007
:100540006BF068C06CF069C06DF0746B756B726BAA
:10055000736B010E73AF02D0D89003D0725D000EA2
:10056000735904E2030E726F736B03D07207000EAF
:10057000735B8150080B01E072D17051711101E081
:100580006ED17451751101E06AD1140EDB6A150E3B
:10059000DB6A81A6FED70001725173114FE10A0E8A
:1005A000146E156A66C008F067C009F014C00DF03B
:1005B00015C00EF0FEEC09F0140E08C0DBFF150E9E
:1005C00009C0DBFF140EDBCF14F0150EDBCF15F0E6
:1005D000D890155004E6090E145C000E155806E27A
:1005E000140EDB2A150E01E3DB2A04D0140EDB6A9D
:1005F000150EDB6A66C014F067C015F00A0E0D6EAA
:100600000E6A14C008F015C009F0FEEC09F004C031
:1006100014F005C015F00A0E086E096A140EDBCF3F
:100620000DF0150EDBCF0EF0D1EC09F014500624BE
:100630000001666F15500720676F09D1010E72190E
:1006400001E1735156E166C014F067C015F00A0E5F
:100650000D6E0E6A14C008F015C009F0FEEC09F02A
:1006600004C014F005C015F0140E14C0DBFF150E05
:1006700015C0DBFF140EDBCF14F0150EDBCF15F029
:10068000D890155004E6090E145C000E155806E2C9
:10069000140EDB2A150E01E3DB2A04D0140EDB6AEC
:1006A000150EDB6A66C014F067C015F00A0E0D6EF9
:1006B0000E6A14C008F015C009F0FEEC09F008C07D
:1006C00014F009C015F00A0E1502F3CF15F014024C
:1006D000F3CF14F0F4501526140EDB50000114244F
:1006E0000001666F150EDB50000115200001676FD9
:1006F000AED0020E721901E173514FE10A0E146E71
:10070000156A68C008F069C009F014C00DF015C082
:100710000EF0FEEC09F0140E08C0DBFF150E09C048
:10072000DBFF140EDBCF14F0150EDBCF15F0D890E5
:10073000155004E6090E145C000E155806E2140E5E
:10074000DB2A150E01E3DB2A04D0140EDB6A150E3A
:10075000DB6A68C014F069C015F00A0E0D6E0E6AEF
:1007600014C008F015C009F0FEEC09F004C014F044
:1007700005C015F00A0E086E096A140EDBCF0DF0E5
:10078000150EDBCF0EF0D1EC09F014500624000159
:10079000686F15500720696F5AD0030E721901E176
:1007A000735155E168C014F069C015F00A0E0D6E62
:1007B0000E6A14C008F015C009F0FEEC09F004C080
:1007C00014F005C015F0140E14C0DBFF150E15C093
:1007D000DBFF140EDBCF14F0150EDBCF15F0D89035
:1007E000155004E6090E145C000E155806E2140EAE
:1007F000DB2A150E01E3DB2A04D0140EDB6A150E8A
:10080000DB6A68C014F069C015F00A0E0D6E0E6A3E
:1008100014C008F015C009F0FEEC09F008C014F08F
:1008200009C015F00A0E1502F3CF15F01402F3CF2C
:1008300014F0F4501526140EDB50000114240001AE
:10084000686F150EDB50000115200001696F66C04E
:100850006AF067C06BF068C06CF069C06DF081B27F
:100860000AD081A2FED70001701F711F010E746FA4
:10087000756B726B736B6A516B1117E16C516D1173
:1008800014E17051711111E0765177110DE06CC0D7
:10089000E6FF6DC0E6FF6AC0E6FF6BC0E6FFA6DBC1
:1008A000E552E552E552E55225D07051711115E13E
:1008B0007451751112E168C0E6FF69C0E6FF66C0B9
:1008C000E6FF67C0E6FF72C0E6FF73C0E6FF35DAF9
:1008D000146E060EE15E14500DD06CC0E6FF6DC0C4
:1008E000E6FF6AC0E6FF6BC0E6FF80DBE552E5523B
:1008F000E552E552A0D1030E6E1901E16F5101E0FE
:100900009AD1838E81B41AD081A4FED7000174518C
:10091000751110E0020E73AF02D0D89003D0725D53
:10092000000E735904E2722B000E732302D0726B17
:10093000736B04D0741F751F726B736B8150080B3F
:1009400033E17451751130E081A6FED70001010E2C
:10095000721901E173510CE13C0E625D000E6359A6
:1009600004E2622B000E632302D0626B636B1CD027
:100970007251731112E100010C0E825D000E835959
:1009800009E2000E825D000E835904E3822B000E03
:10099000832302D0826B836B07D0020E721901E1B0
:1009A000735102E18378837A83A80ED082C064F009
:1009B00083C065F000010C0E821901E1835103E14F
:1009C0000001646B656B16D083AA14D00C0E000175
:1009D00082250001646F000E000183210001656F14
:1009E00000010C0E821901E1835104E10C0E00019B
:1009F000646F656B81B205D081A2FED70001746B74
:100A0000756B00017451751101E108D172517311B8
:100A100004E17651771101E08380010E721901E142
:100A2000735105E0020E721901E1735101E18380F7
:100A3000D9CF16F0DACF17F082C018F083C019F0C2
:100A40000A0E0D6E0E6A18C008F019C009F0FEEC0F
:100A500009F008C018F009C019F0010ED890183636
:100A60001936E806FBE116501824E96E17501920D4
:100A7000EA6EEECF14F0EFCF15F0141C826E640E08
:100A8000E66EE66AE4D8E552E5528390826800019A
:100A90007251731104E17651771101E08382010EE6
:100AA000721901E1735105E0020E721901E17351EF
:100AB00001E18382D9CF16F0DACF17F082C018F0A7
:100AC00083C019F00A0E0D6E0E6A18C008F019C026
:100AD00009F0FEEC09F004C018F005C019F0010E91
:100AE000D89018361936E806FBE116501824E96E3E
:100AF00017501920EA6EEECF14F0EFCF15F0141C4A
:100B0000826E640EE66EE66AA2D8E552E5528392E2
:100B100082680001010E721901E1735104E17651FE
:100B2000771101E083847251731105E0020E72198E
:100B300001E1735101E18384D9CF16F0DACF17F0C8
:100B400062C018F063C019F00A0E0D6E0E6A18C06C
:100B500008F019C009F0FEEC09F008C018F009C04F
:100B600019F0010ED89018361936E806FBE1165038
:100B70001824E96E17501920EA6EEECF14F0EFCF6B
:100B800015F0141C826E640EE66EE66A60D8E552BB
:100B9000E552839482680001010E721901E17351DC
:100BA00004E17651771101E083867251731105E0FB
:100BB000020E721901E1735101E18386D9CF16F05B
:100BC000DACF17F062C018F063C019F00A0E0D6E8C
:100BD0000E6A18C008F019C009F0FEEC09F004C054
:100BE00018F005C019F0010ED89018361936E8062D
:100BF000FBE116501824E96E17501920EA6EEECF6B
:100C000014F0EFCF15F0141C826E640EE66EE66AE7
:100C10001ED8E552E552839682680DD062C0E6FF89
:100C200063C0E6FF82C0E6FF83C0E6FFDFD9E5527E
:100C3000E552E552E552F9EF00F0160EE15C02E2F2
:100C4000E16AE552E16EE552E7CFD9FF1200D9CF54
:100C5000E6FFE1CFD9FF020EE126DE6ADD6ADECFD4
:100C600014F0DDCF15F0FD0EDBCF16F0FE0EDBCF5E
:100C700017F015501718E8AE02D0173404D01650EC
:100C8000145C1750155805E2DF2A010E01E3DB2A38
:100C9000E6D7DE6ADD6ADECF14F0DDCF15F0FD0E9B
:100CA000DBCF16F0FE0EDBCF17F015501718E8AEAD
:100CB00002D0173404D01650145C1750155805E2B2
:100CC000DF2A010E01E3DB2AE6D7020EE15C02E235
:100CD000E16AE552E16EE552E7CFD9FF120000016B
:100CE000706B716B030E726F736B6E516F1105E059
:100CF000030E6E1901E16F5102E1726B736B6A6B47
:100D00006B6B6C6B6D6B020E6E1901E16F5108E13C
:100D100066C06AF067C06BF068C06CF069C06DF0C7
:100D2000839E839C746B756B03D88398839A12009F
:100D300083908392839483961200D9CFE6FFE1CF0C
:100D4000D9FF140EE126BF0EDE6EDD6A860EF36E4D
:100D5000020EF3CFDBFF030EDB6ADB0EF36E040E35
:100D6000F3CFDBFF050EDB6ACF0EF36E060EF3CF7B
:100D7000DBFF070EDB6AE60EF36E080EF3CFDBFF38
:100D8000090EDB6AED0EF36E0A0EF3CFDBFF0B0EDE
:100D9000DB6AFD0EF36E0C0EF3CFDBFF0D0EDB6A8C
:100DA000870EF36E0E0EF3CFDBFF0F0EDB6A100E15
:100DB000DB68110EDB6AEF0EF36E120EF3CFDBFF72
:100DC000130EDB6AD950FD0FE96EFF0EDA20EA6ED2
:100DD000EE50ED1006E100017651771101E08380BD
:100DE00001D08380D9CF16F0DACF17F0FB0EDBCF1E
:100DF00018F0FC0EDBCF19F00A0E0D6E0E6A18C04B
:100E000008F019C009F0FEEC09F008C018F009C09C
:100E100019F0010ED89018361936E806FBE1165085
:100E20001824E96E17501920EA6EEECF14F0EFCFB8
:100E300015F0141C826E640EE66EE66A08DFE55259
:100E4000E55283908268D950FD0FE96EFF0EDA20DB
:100E5000EA6E010EEE1801E1ED5006E10001765157
:100E6000771101E0838201D08382D9CF16F0DACFE7
:100E700017F0FB0EDBCF18F0FC0EDBCF19F00A0EDB
:100E80000D6E0E6A18C008F019C009F0FEEC09F0EA
:100E900004C018F005C019F0010ED89018361936A4
:100EA000E806FBE116501824E96E17501920EA6E87
:100EB000EECF14F0EFCF15F0141C826E640EE66EC8
:100EC000E66AC5DEE552E55283928268D950FD0F8D
:100ED000E96EFF0EDA20EA6E020EEE1801E1ED5027
:100EE00006E100017651771101E0838401D083840B
:100EF000D9CF16F0DACF17F0F90EDBCF18F0FA0ED3
:100F0000DBCF19F00A0E0D6E0E6A18C008F019C07A
:100F100009F0FEEC09F008C018F009C019F0010E44
:100F2000D89018361936E806FBE116501824E96EF9
:100F300017501920EA6EEECF14F0EFCF15F0141C05
:100F4000826E640EE66EE66A82DEE552E5528394B6
:100F50008268D950FD0FE96EFF0EDA20EA6E030EAB
:100F6000EE1801E1ED5006E100017651771101E044
:100F7000838601D08386D9CF16F0DACF17F0F90E29
:100F8000DBCF18F0FA0EDBCF19F00A0E0D6E0E6AE9
:100F900018C008F019C009F0FEEC09F004C018F000
:100FA00005C019F0010ED89018361936E806FBE195
:100FB00016501824E96E17501920EA6EEECF14F07F
:100FC000EFCF15F0141C826E640EE66EE66A3FDE0B
:100FD000E552E55283968268140EE15C02E2E16A12
:100FE000E552E16EE552E7CFD9FF1200D9CFE6FF17
:100FF000E1CFD9FF140EE126BF0EDE6EDD6A860E4C
:10100000F36E020EF3CFDBFF030EDB6ADB0EF36E33
:10101000040EF3CFDBFF050EDB6ACF0EF36E060E78
:10102000F3CFDBFF070EDB6AE60EF36E080EF3CF9D
:10103000DBFF090EDB6AED0EF36E0A0EF3CFDBFF6A
:101040000B0EDB6AFD0EF36E0C0EF3CFDBFF0D0E05
:10105000DB6A870EF36E0E0EF3CFDBFF0F0EDB6A3B
:10106000100EDB68110EDB6AEF0EF36E120EF3CF7B
:10107000DBFF130EDB6A8380D9CF16F0DACF17F0CF
:10108000FD0EDBCF18F0FE0EDBCF19F00A0E0D6E51
:101090000E6A18C008F019C009F0FEEC09F008C08B
:1010A00018F009C019F0010ED89018361936E80664
:1010B000FBE116501824E96E17501920EA6EEECFA6
:1010C00014F0EFCF15F0141C826E640EE66EE66A23
:1010D000BEDDE552E552839082688382D9CF16F057
:1010E000DACF17F0FD0EDBCF18F0FE0EDBCF19F0D4
:1010F0000A0E0D6E0E6A18C008F019C009F0FEEC59
:1011000009F004C018F005C019F0010ED890183687
:101110001936E806FBE116501824E96E175019201D
:10112000EA6EEECF14F0EFCF15F0141C826E640E51
:10113000E66EE66A8CDDE552E5528392826883842E
:10114000D9CF16F0DACF17F0FB0EDBCF18F0FC0E7C
:10115000DBCF19F00A0E0D6E0E6A18C008F019C028
:1011600009F0FEEC09F008C018F009C019F0010EF2
:10117000D89018361936E806FBE116501824E96EA7
:1011800017501920EA6EEECF14F0EFCF15F0141CB3
:10119000826E640EE66EE66A5ADDE552E55283948D
:1011A00082688386D9CF16F0DACF17F0FB0EDBCF3B
:1011B00018F0FC0EDBCF19F00A0E0D6E0E6A18C087
:1011C00008F019C009F0FEEC09F004C018F005C0E1
:1011D00019F0010ED89018361936E806FBE11650C2
:1011E0001824E96E17501920EA6EEECF14F0EFCFF5
:1011F00015F0141C826E640EE66EE66A28DDE55278
:10120000E55283968268140EE15C02E2E16AE552DF
:10121000E16EE552E7CFD9FF1200070ED56EF00E52
:10122000F26ED76EBD0ED66ED58E120000013C0E4A
:10123000605D000E615905E3622B000E6323606B55
:10124000616B3C0E625D000E635905E3642B000E7A
:101250006523626B636B180E645D000E655906E3CF
:10126000646B656B626B636B606B616B030E6E1915
:1012700001E16F5128E10C0E645D000E655916E323
:1012800064C082F065C083F000010C0E825F000E26
:10129000835B00010C0E641901E1655104E10C0E41
:1012A0000001826F836B838A83980DD064C082F0C3
:1012B00065C083F06451651104E10C0E0001826F7A
:1012C000836B8388839A0001010E6E1901E16F51CF
:1012D0000AE13C0E6C1901E16D5105E16A2B000E2B
:1012E0006B236C6B6D6B020E6E1901E16F5109E19E
:1012F0006C516D1106E16A516B1103E06A07000E33
:041300006B5B120011
:0C130400400EF66E010EF76E000EF86E43
:1013100000010900F5507D6F0900F5507E6F03E173
:101320007D6701D03DD00900F550786F0900F55078
:10133000796F0900F5507A6F09000900F550E96EE0
:101340000900F550EA6E090009000900F5507B6FAD
:101350000900F5507C6F09000900F6CF7FF0F7CF48
:1013600080F0F8CF81F078C0F6FF79C0F7FF7AC03F
:10137000F8FF00017B5302E17C5307E00900F550C0
:10138000EE6E7B07F8E27C07F9D77FC0F6FF80C0DE
:10139000F7FF81C0F8FF00017D07000E7E5BBFD71D
:0213A000120039
:0E13A20009C013F008C012F008500D02F4CF7D
:1013B00007F0F3CF06F009500E02F4CF09F0F3CF97
:1013C00008F00D02F3500726F4500822E86A0922BB
:1013D00012500E02F3500726F4500822E86A092240
:1013E0000EAEF7EF09F01250085E1350095A13AE13
:0C13F000000C0D50085E0E50095A000C55
:0413FC00056A046A10
:10140000100EE76ED89008360936043605360D50B2
:10141000045C0E50055805E30D50045E0E50055A4D
:08142000082AE72EF0D71200A4
:08142800000EF36E00EE00F06F
:10143000060E01D81200EA6002D0EE6AFCD7F35023
:08144000E9601200EE6AFCD71E
:0814480015EE00F025EE00F0A6
:10145000F86A019C82EC09F003EC00F0A7EC00F0C4
:04146000FBD71200A4
:0C1464000000000000000000000000007C
:0C14700000000000000000000000000070
:00000001FF
